{
  "contractName": "SimpleStorage",
  "abi": [
    {
      "constant": true,
      "inputs": [
        {
          "name": "",
          "type": "address"
        },
        {
          "name": "",
          "type": "uint256"
        }
      ],
      "name": "users",
      "outputs": [
        {
          "name": "recordCount",
          "type": "uint256"
        },
        {
          "name": "_firstName",
          "type": "string"
        },
        {
          "name": "_lastName",
          "type": "string"
        },
        {
          "name": "doctor",
          "type": "string"
        },
        {
          "name": "treatmentSite",
          "type": "string"
        },
        {
          "name": "date",
          "type": "string"
        },
        {
          "name": "ipfsHash",
          "type": "string"
        }
      ],
      "payable": false,
      "stateMutability": "view",
      "type": "function",
      "signature": "0x54a02f9e"
    },
    {
      "constant": true,
      "inputs": [
        {
          "name": "",
          "type": "address"
        },
        {
          "name": "_doctor",
          "type": "string"
        },
        {
          "name": "_site",
          "type": "string"
        },
        {
          "name": "x",
          "type": "string"
        },
        {
          "name": "_firstName",
          "type": "string"
        },
        {
          "name": "_lastName",
          "type": "string"
        },
        {
          "name": "_date",
          "type": "string"
        }
      ],
      "name": "status",
      "outputs": [
        {
          "name": "",
          "type": "string"
        }
      ],
      "payable": false,
      "stateMutability": "view",
      "type": "function",
      "signature": "0x89ea280f"
    },
    {
      "constant": false,
      "inputs": [
        {
          "name": "_address",
          "type": "address"
        },
        {
          "name": "_doctor",
          "type": "string"
        },
        {
          "name": "_site",
          "type": "string"
        },
        {
          "name": "x",
          "type": "string"
        },
        {
          "name": "_firstName",
          "type": "string"
        },
        {
          "name": "_lastName",
          "type": "string"
        },
        {
          "name": "_date",
          "type": "string"
        }
      ],
      "name": "set",
      "outputs": [
        {
          "name": "",
          "type": "uint256"
        }
      ],
      "payable": false,
      "stateMutability": "nonpayable",
      "type": "function",
      "signature": "0x84800a9e"
    },
    {
      "constant": true,
      "inputs": [
        {
          "name": "_address",
          "type": "address"
        },
        {
          "name": "index",
          "type": "uint256"
        }
      ],
      "name": "getLength",
      "outputs": [
        {
          "components": [
            {
              "name": "recordCount",
              "type": "uint256"
            },
            {
              "name": "_firstName",
              "type": "string"
            },
            {
              "name": "_lastName",
              "type": "string"
            },
            {
              "name": "doctor",
              "type": "string"
            },
            {
              "name": "treatmentSite",
              "type": "string"
            },
            {
              "name": "date",
              "type": "string"
            },
            {
              "name": "ipfsHash",
              "type": "string"
            }
          ],
          "name": "",
          "type": "uint256"
        }
      ],
      "payable": false,
      "stateMutability": "view",
      "type": "function",
      "signature": "0xcdb8acf0"
    },
    {
      "constant": true,
      "inputs": [
        {
          "name": "_address",
          "type": "address"
        },
        {
          "name": "toAddress",
          "type": "address"
        }
      ],
      "name": "getRecords",
      "outputs": [
        {
          "components": [
            {
              "name": "recordCount",
              "type": "uint256"
            },
            {
              "name": "_firstName",
              "type": "string"
            },
            {
              "name": "_lastName",
              "type": "string"
            },
            {
              "name": "doctor",
              "type": "string"
            },
            {
              "name": "treatmentSite",
              "type": "string"
            },
            {
              "name": "date",
              "type": "string"
            },
            {
              "name": "ipfsHash",
              "type": "string"
            }
          ],
          "name": "",
          "type": "tuple[]"
        }
      ],
      "payable": false,
      "stateMutability": "view",
      "type": "function",
      "signature": "0x2f980a4a"
    },
    {
      "constant": false,
      "inputs": [
        {
          "name": "i",
          "type": "uint256"
        },
        {
          "name": "toAddress",
          "type": "address"
        }
      ],
      "name": "setPermission",
      "outputs": [],
      "payable": false,
      "stateMutability": "nonpayable",
      "type": "function"
    }
  ],
  "bytecode": "0x608060405234801561001057600080fd5b50611a3b806100206000396000f3fe608060405260043610610078576000357c0100000000000000000000000000000000000000000000000000000000900463ffffffff1680632f980a4a1461007d57806354a02f9e146100a6578063645b8b1b146100e957806389ea280f14610126578063a0076e841461014f578063fe611a071461018c575b600080fd5b34801561008957600080fd5b506100a4600480360361009f9190810190611639565b6101c9565b005b3480156100b257600080fd5b506100cd60048036036100c891908101906115fd565b610805565b6040516100e09796959493929190611846565b60405180910390f35b3480156100f557600080fd5b50610110600480360361010b91908101906114a6565b610bf3565b60405161011d9190611809565b60405180910390f35b34801561013257600080fd5b5061014d600480360361014891908101906114cf565b610ca3565b005b34801561015b57600080fd5b50610176600480360361017191908101906114a6565b610e86565b60405161018391906117e7565b60405180910390f35b34801561019857600080fd5b506101b360048036036101ae91908101906114a6565b6112fa565b6040516101c0919061182b565b60405180910390f35b8073ffffffffffffffffffffffffffffffffffffffff163373ffffffffffffffffffffffffffffffffffffffff161415151561020457600080fd5b60008060008373ffffffffffffffffffffffffffffffffffffffff1673ffffffffffffffffffffffffffffffffffffffff168152602001908152602001600020805490509050610252611345565b6000803373ffffffffffffffffffffffffffffffffffffffff1673ffffffffffffffffffffffffffffffffffffffff1681526020019081526020016000208481548110151561029d57fe5b906000526020600020906007020160e0604051908101604052908160008201548152602001600182018054600181600116156101000203166002900480601f01602080910402602001604051908101604052809291908181526020018280546001816001161561010002031660029004801561035a5780601f1061032f5761010080835404028352916020019161035a565b820191906000526020600020905b81548152906001019060200180831161033d57829003601f168201915b50505050508152602001600282018054600181600116156101000203166002900480601f0160208091040260200160405190810160405280929190818152602001828054600181600116156101000203166002900480156103fc5780601f106103d1576101008083540402835291602001916103fc565b820191906000526020600020905b8154815290600101906020018083116103df57829003601f168201915b50505050508152602001600382018054600181600116156101000203166002900480601f01602080910402602001604051908101604052809291908181526020018280546001816001161561010002031660029004801561049e5780601f106104735761010080835404028352916020019161049e565b820191906000526020600020905b81548152906001019060200180831161048157829003601f168201915b50505050508152602001600482018054600181600116156101000203166002900480601f0160208091040260200160405190810160405280929190818152602001828054600181600116156101000203166002900480156105405780601f1061051557610100808354040283529160200191610540565b820191906000526020600020905b81548152906001019060200180831161052357829003601f168201915b50505050508152602001600582018054600181600116156101000203166002900480601f0160208091040260200160405190810160405280929190818152602001828054600181600116156101000203166002900480156105e25780601f106105b7576101008083540402835291602001916105e2565b820191906000526020600020905b8154815290600101906020018083116105c557829003601f168201915b50505050508152602001600682018054600181600116156101000203166002900480601f0160208091040260200160405190810160405280929190818152602001828054600181600116156101000203166002900480156106845780601f1061065957610100808354040283529160200191610684565b820191906000526020600020905b81548152906001019060200180831161066757829003601f168201915b50505050508152505090506000808473ffffffffffffffffffffffffffffffffffffffff1673ffffffffffffffffffffffffffffffffffffffff16815260200190815260200160002060e060405190810160405280848152602001836020015181526020018360400151815260200183606001518152602001836080015181526020018360a0015181526020018360c001518152509080600181540180825580915050906001820390600052602060002090600702016000909192909190915060008201518160000155602082015181600101908051906020019061076a929190611383565b506040820151816002019080519060200190610787929190611383565b5060608201518160030190805190602001906107a4929190611383565b5060808201518160040190805190602001906107c1929190611383565b5060a08201518160050190805190602001906107de929190611383565b5060c08201518160060190805190602001906107fb929190611383565b5050505050505050565b60006020528160005260406000208181548110151561082057fe5b906000526020600020906007020160009150915050806000015490806001018054600181600116156101000203166002900480601f0160208091040260200160405190810160405280929190818152602001828054600181600116156101000203166002900480156108d35780601f106108a8576101008083540402835291602001916108d3565b820191906000526020600020905b8154815290600101906020018083116108b657829003601f168201915b505050505090806002018054600181600116156101000203166002900480601f0160208091040260200160405190810160405280929190818152602001828054600181600116156101000203166002900480156109715780601f1061094657610100808354040283529160200191610971565b820191906000526020600020905b81548152906001019060200180831161095457829003601f168201915b505050505090806003018054600181600116156101000203166002900480601f016020809104026020016040519081016040528092919081815260200182805460018160011615610100020316600290048015610a0f5780601f106109e457610100808354040283529160200191610a0f565b820191906000526020600020905b8154815290600101906020018083116109f257829003601f168201915b505050505090806004018054600181600116156101000203166002900480601f016020809104026020016040519081016040528092919081815260200182805460018160011615610100020316600290048015610aad5780601f10610a8257610100808354040283529160200191610aad565b820191906000526020600020905b815481529060010190602001808311610a9057829003601f168201915b505050505090806005018054600181600116156101000203166002900480601f016020809104026020016040519081016040528092919081815260200182805460018160011615610100020316600290048015610b4b5780601f10610b2057610100808354040283529160200191610b4b565b820191906000526020600020905b815481529060010190602001808311610b2e57829003601f168201915b505050505090806006018054600181600116156101000203166002900480601f016020809104026020016040519081016040528092919081815260200182805460018160011615610100020316600290048015610be95780601f10610bbe57610100808354040283529160200191610be9565b820191906000526020600020905b815481529060010190602001808311610bcc57829003601f168201915b5050505050905087565b60016020528060005260406000206000915090508054600181600116156101000203166002900480601f016020809104026020016040519081016040528092919081815260200182805460018160011615610100020316600290048015610c9b5780601f10610c7057610100808354040283529160200191610c9b565b820191906000526020600020905b815481529060010190602001808311610c7e57829003601f168201915b505050505081565b8673ffffffffffffffffffffffffffffffffffffffff163373ffffffffffffffffffffffffffffffffffffffff1614151515610cde57600080fd5b60008060008973ffffffffffffffffffffffffffffffffffffffff1673ffffffffffffffffffffffffffffffffffffffff1681526020019081526020016000208054905090506000808973ffffffffffffffffffffffffffffffffffffffff1673ffffffffffffffffffffffffffffffffffffffff16815260200190815260200160002060e0604051908101604052808381526020018681526020018581526020018981526020018881526020018481526020018781525090806001815401808255809150509060018203906000526020600020906007020160009091929091909150600082015181600001556020820151816001019080519060200190610de7929190611383565b506040820151816002019080519060200190610e04929190611383565b506060820151816003019080519060200190610e21929190611383565b506080820151816004019080519060200190610e3e929190611383565b5060a0820151816005019080519060200190610e5b929190611383565b5060c0820151816006019080519060200190610e78929190611383565b505050505050505050505050565b60606000808373ffffffffffffffffffffffffffffffffffffffff1673ffffffffffffffffffffffffffffffffffffffff168152602001908152602001600020805480602002602001604051908101604052809291908181526020016000905b828210156112ef578382906000526020600020906007020160e0604051908101604052908160008201548152602001600182018054600181600116156101000203166002900480601f016020809104026020016040519081016040528092919081815260200182805460018160011615610100020316600290048015610fad5780601f10610f8257610100808354040283529160200191610fad565b820191906000526020600020905b815481529060010190602001808311610f9057829003601f168201915b50505050508152602001600282018054600181600116156101000203166002900480601f01602080910402602001604051908101604052809291908181526020018280546001816001161561010002031660029004801561104f5780601f106110245761010080835404028352916020019161104f565b820191906000526020600020905b81548152906001019060200180831161103257829003601f168201915b50505050508152602001600382018054600181600116156101000203166002900480601f0160208091040260200160405190810160405280929190818152602001828054600181600116156101000203166002900480156110f15780601f106110c6576101008083540402835291602001916110f1565b820191906000526020600020905b8154815290600101906020018083116110d457829003601f168201915b50505050508152602001600482018054600181600116156101000203166002900480601f0160208091040260200160405190810160405280929190818152602001828054600181600116156101000203166002900480156111935780601f1061116857610100808354040283529160200191611193565b820191906000526020600020905b81548152906001019060200180831161117657829003601f168201915b50505050508152602001600582018054600181600116156101000203166002900480601f0160208091040260200160405190810160405280929190818152602001828054600181600116156101000203166002900480156112355780601f1061120a57610100808354040283529160200191611235565b820191906000526020600020905b81548152906001019060200180831161121857829003601f168201915b50505050508152602001600682018054600181600116156101000203166002900480601f0160208091040260200160405190810160405280929190818152602001828054600181600116156101000203166002900480156112d75780601f106112ac576101008083540402835291602001916112d7565b820191906000526020600020905b8154815290600101906020018083116112ba57829003601f168201915b50505050508152505081526020019060010190610ee6565b505050509050919050565b60008060008373ffffffffffffffffffffffffffffffffffffffff1673ffffffffffffffffffffffffffffffffffffffff168152602001908152602001600020805490509050919050565b60e060405190810160405280600081526020016060815260200160608152602001606081526020016060815260200160608152602001606081525090565b828054600181600116156101000203166002900490600052602060002090601f016020900481019282601f106113c457805160ff19168380011785556113f2565b828001600101855582156113f2579182015b828111156113f15782518255916020019190600101906113d6565b5b5090506113ff9190611403565b5090565b61142591905b80821115611421576000816000905550600101611409565b5090565b90565b60006114348235611992565b905092915050565b600082601f830112151561144f57600080fd5b813561146261145d8261190c565b6118df565b9150808252602083016020830185838301111561147e57600080fd5b6114898382846119ae565b50505092915050565b600061149e82356119a4565b905092915050565b6000602082840312156114b857600080fd5b60006114c684828501611428565b91505092915050565b600080600080600080600060e0888a0312156114ea57600080fd5b60006114f88a828b01611428565b975050602088013567ffffffffffffffff81111561151557600080fd5b6115218a828b0161143c565b965050604088013567ffffffffffffffff81111561153e57600080fd5b61154a8a828b0161143c565b955050606088013567ffffffffffffffff81111561156757600080fd5b6115738a828b0161143c565b945050608088013567ffffffffffffffff81111561159057600080fd5b61159c8a828b0161143c565b93505060a088013567ffffffffffffffff8111156115b957600080fd5b6115c58a828b0161143c565b92505060c088013567ffffffffffffffff8111156115e257600080fd5b6115ee8a828b0161143c565b91505092959891949750929550565b6000806040838503121561161057600080fd5b600061161e85828601611428565b925050602061162f85828601611492565b9150509250929050565b6000806040838503121561164c57600080fd5b600061165a85828601611492565b925050602061166b85828601611428565b9150509250929050565b600061168082611945565b8084526020840193508360208202850161169985611938565b60005b848110156116d25783830388526116b4838351611719565b92506116bf8261195b565b915060208801975060018101905061169c565b508196508694505050505092915050565b60006116ee82611950565b8084526117028160208601602086016119bd565b61170b816119f0565b602085010191505092915050565b600060e08301600083015161173160008601826117d8565b506020830151848203602086015261174982826116e3565b9150506040830151848203604086015261176382826116e3565b9150506060830151848203606086015261177d82826116e3565b9150506080830151848203608086015261179782826116e3565b91505060a083015184820360a08601526117b182826116e3565b91505060c083015184820360c08601526117cb82826116e3565b9150508091505092915050565b6117e181611988565b82525050565b600060208201905081810360008301526118018184611675565b905092915050565b6000602082019050818103600083015261182381846116e3565b905092915050565b600060208201905061184060008301846117d8565b92915050565b600060e08201905061185b600083018a6117d8565b818103602083015261186d81896116e3565b9050818103604083015261188181886116e3565b9050818103606083015261189581876116e3565b905081810360808301526118a981866116e3565b905081810360a08301526118bd81856116e3565b905081810360c08301526118d181846116e3565b905098975050505050505050565b6000604051905081810181811067ffffffffffffffff8211171561190257600080fd5b8060405250919050565b600067ffffffffffffffff82111561192357600080fd5b601f19601f8301169050602081019050919050565b6000602082019050919050565b600081519050919050565b600081519050919050565b6000602082019050919050565b600073ffffffffffffffffffffffffffffffffffffffff82169050919050565b6000819050919050565b600061199d82611968565b9050919050565b6000819050919050565b82818337600083830152505050565b60005b838110156119db5780820151818401526020810190506119c0565b838111156119ea576000848401525b50505050565b6000601f19601f830116905091905056fea265627a7a72305820ed9897db991abe220c17ab0858b3fd0b6d7360ee1b8874d242c22f82cbb45d2d6c6578706572696d656e74616cf50037",
  "source": "pragma solidity ^0.5.0;\npragma experimental ABIEncoderV2;\n\ncontract SimpleStorage {\n  struct Records {\n  \tuint recordCount;\n  \tstring _firstName;\n  \tstring _lastName;\n  \tstring doctor;\n  \tstring treatmentSite;\n  \tstring date;\n  \tstring ipfsHash;\n  }\n\n  mapping(address => Records[]) public users;\n  mapping(address => string) public status;\n\n  function set(address _address, string memory _doctor, string memory _site, string memory x, string memory _firstName, string memory _lastName, string memory _date) public{\n  \trequire(msg.sender != _address);\n    uint index = users[_address].length;\n  \tusers[_address].push(Records(index, _firstName, _lastName, _doctor, _site, _date, x));\n  }\n\n  function getLength(address _address) public view returns (uint){\n      return users[_address].length;\n  }\n\n  function getRecords(address _address) public view returns (Records[] memory){\n      return users[_address];\n  }\n\n  function setPermission(uint i, address toAddress) public{\n  \t//users[toAddress].push(users[msg.sender][i]);\n    require(msg.sender != toAddress);\n    uint index = users[toAddress].length;\n    Records memory parsedRecord = users[msg.sender][i];\n    users[toAddress].push(Records(index, parsedRecord._firstName, parsedRecord._lastName, parsedRecord.doctor, parsedRecord.treatmentSite, parsedRecord.date, parsedRecord.ipfsHash));\n  }\n\n}",
  "sourcePath": "/Users/oluwafisayooke/Desktop/Medical-Records---Ethereum/Medical/contracts/SimpleStorage.sol",
  "compiler": {
    "name": "solc",
    "version": "0.5.0+commit.1d4f565a.Emscripten.clang"
  },
  "schemaVersion": "3.0.6",
  "updatedAt": "2019-04-27T10:47:36.487Z",
  "devdoc": {
    "methods": {}
  },
  "userdoc": {
    "methods": {}
  }
}