{
  "contractName": "SimpleStorage",
  "abi": [
    {
      "constant": true,
      "inputs": [
        {
          "name": "",
          "type": "address"
        },
        {
          "name": "",
          "type": "uint256"
        }
      ],
      "name": "users",
      "outputs": [
        {
          "name": "recordCount",
          "type": "uint256"
        },
        {
          "name": "_firstName",
          "type": "string"
        },
        {
          "name": "_lastName",
          "type": "string"
        },
        {
          "name": "doctor",
          "type": "string"
        },
        {
          "name": "treatmentSite",
          "type": "string"
        },
        {
          "name": "date",
          "type": "string"
        },
        {
          "name": "ipfsHash",
          "type": "string"
        }
      ],
      "payable": false,
      "stateMutability": "view",
      "type": "function",
      "signature": "0x54a02f9e"
    },
    {
      "constant": true,
      "inputs": [
        {
          "name": "",
          "type": "address"
        }
      ],
      "name": "status",
      "outputs": [
        {
          "name": "",
          "type": "string"
        }
      ],
      "payable": false,
      "stateMutability": "view",
      "type": "function",
      "signature": "0x645b8b1b"
    },
    {
      "constant": false,
      "inputs": [
        {
          "name": "_address",
          "type": "address"
        },
        {
          "name": "_doctor",
          "type": "string"
        },
        {
          "name": "_site",
          "type": "string"
        },
        {
          "name": "x",
          "type": "string"
        },
        {
          "name": "_firstName",
          "type": "string"
        },
        {
          "name": "_lastName",
          "type": "string"
        },
        {
          "name": "_date",
          "type": "string"
        }
      ],
      "name": "set",
      "outputs": [],
      "payable": false,
      "stateMutability": "nonpayable",
      "type": "function",
      "signature": "0x89ea280f"
    },
    {
      "constant": false,
      "inputs": [
        {
          "name": "_address",
          "type": "address"
        },
        {
          "name": "_status",
          "type": "string"
        }
      ],
      "name": "setUser",
      "outputs": [],
      "payable": false,
      "stateMutability": "nonpayable",
      "type": "function",
      "signature": "0x3f1a51b8"
    },
    {
      "constant": true,
      "inputs": [
        {
          "name": "_address",
          "type": "address"
        }
      ],
      "name": "getUser",
      "outputs": [
        {
          "name": "",
          "type": "string"
        }
      ],
      "payable": false,
      "stateMutability": "view",
      "type": "function",
      "signature": "0x6f77926b"
    },
    {
      "constant": true,
      "inputs": [
        {
          "name": "_address",
          "type": "address"
        }
      ],
      "name": "getRecords",
      "outputs": [
        {
          "components": [
            {
              "name": "recordCount",
              "type": "uint256"
            },
            {
              "name": "_firstName",
              "type": "string"
            },
            {
              "name": "_lastName",
              "type": "string"
            },
            {
              "name": "doctor",
              "type": "string"
            },
            {
              "name": "treatmentSite",
              "type": "string"
            },
            {
              "name": "date",
              "type": "string"
            },
            {
              "name": "ipfsHash",
              "type": "string"
            }
          ],
          "name": "",
          "type": "tuple[]"
        }
      ],
      "payable": false,
      "stateMutability": "view",
      "type": "function",
      "signature": "0xa0076e84"
    },
    {
      "constant": false,
      "inputs": [
        {
          "name": "i",
          "type": "uint256"
        },
        {
          "name": "toAddress",
          "type": "address"
        }
      ],
      "name": "setPermission",
      "outputs": [],
      "payable": false,
      "stateMutability": "nonpayable",
      "type": "function",
      "signature": "0x2f980a4a"
    }
  ],
  "bytecode": "0x608060405234801561001057600080fd5b50611cb3806100206000396000f3fe608060405260043610610083576000357c0100000000000000000000000000000000000000000000000000000000900463ffffffff1680632f980a4a146100885780633f1a51b8146100b157806354a02f9e146100da578063645b8b1b1461011d5780636f77926b1461015a57806389ea280f14610197578063a0076e84146101c0575b600080fd5b34801561009457600080fd5b506100af60048036036100aa9190810190611869565b6101fd565b005b3480156100bd57600080fd5b506100d860048036036100d391908101906116ab565b610839565b005b3480156100e657600080fd5b5061010160048036036100fc919081019061182d565b6108cb565b6040516101149796959493929190611ab3565b60405180910390f35b34801561012957600080fd5b50610144600480360361013f9190810190611682565b610cb9565b6040516101519190611a6f565b60405180910390f35b34801561016657600080fd5b50610181600480360361017c9190810190611682565b610d69565b60405161018e9190611a91565b60405180910390f35b3480156101a357600080fd5b506101be60048036036101b991908101906116ff565b610e4a565b005b3480156101cc57600080fd5b506101e760048036036101e29190810190611682565b61102d565b6040516101f49190611a4d565b60405180910390f35b8073ffffffffffffffffffffffffffffffffffffffff163373ffffffffffffffffffffffffffffffffffffffff161415151561023857600080fd5b60008060008373ffffffffffffffffffffffffffffffffffffffff1673ffffffffffffffffffffffffffffffffffffffff1681526020019081526020016000208054905090506102866114a1565b6000803373ffffffffffffffffffffffffffffffffffffffff1673ffffffffffffffffffffffffffffffffffffffff168152602001908152602001600020848154811015156102d157fe5b906000526020600020906007020160e0604051908101604052908160008201548152602001600182018054600181600116156101000203166002900480601f01602080910402602001604051908101604052809291908181526020018280546001816001161561010002031660029004801561038e5780601f106103635761010080835404028352916020019161038e565b820191906000526020600020905b81548152906001019060200180831161037157829003601f168201915b50505050508152602001600282018054600181600116156101000203166002900480601f0160208091040260200160405190810160405280929190818152602001828054600181600116156101000203166002900480156104305780601f1061040557610100808354040283529160200191610430565b820191906000526020600020905b81548152906001019060200180831161041357829003601f168201915b50505050508152602001600382018054600181600116156101000203166002900480601f0160208091040260200160405190810160405280929190818152602001828054600181600116156101000203166002900480156104d25780601f106104a7576101008083540402835291602001916104d2565b820191906000526020600020905b8154815290600101906020018083116104b557829003601f168201915b50505050508152602001600482018054600181600116156101000203166002900480601f0160208091040260200160405190810160405280929190818152602001828054600181600116156101000203166002900480156105745780601f1061054957610100808354040283529160200191610574565b820191906000526020600020905b81548152906001019060200180831161055757829003601f168201915b50505050508152602001600582018054600181600116156101000203166002900480601f0160208091040260200160405190810160405280929190818152602001828054600181600116156101000203166002900480156106165780601f106105eb57610100808354040283529160200191610616565b820191906000526020600020905b8154815290600101906020018083116105f957829003601f168201915b50505050508152602001600682018054600181600116156101000203166002900480601f0160208091040260200160405190810160405280929190818152602001828054600181600116156101000203166002900480156106b85780601f1061068d576101008083540402835291602001916106b8565b820191906000526020600020905b81548152906001019060200180831161069b57829003601f168201915b50505050508152505090506000808473ffffffffffffffffffffffffffffffffffffffff1673ffffffffffffffffffffffffffffffffffffffff16815260200190815260200160002060e060405190810160405280848152602001836020015181526020018360400151815260200183606001518152602001836080015181526020018360a0015181526020018360c001518152509080600181540180825580915050906001820390600052602060002090600702016000909192909190915060008201518160000155602082015181600101908051906020019061079e9291906114df565b5060408201518160020190805190602001906107bb9291906114df565b5060608201518160030190805190602001906107d89291906114df565b5060808201518160040190805190602001906107f59291906114df565b5060a08201518160050190805190602001906108129291906114df565b5060c082015181600601908051906020019061082f9291906114df565b5050505050505050565b8173ffffffffffffffffffffffffffffffffffffffff163373ffffffffffffffffffffffffffffffffffffffff1614151561087357600080fd5b80600160008473ffffffffffffffffffffffffffffffffffffffff1673ffffffffffffffffffffffffffffffffffffffff16815260200190815260200160002090805190602001906108c692919061155f565b505050565b6000602052816000526040600020818154811015156108e657fe5b906000526020600020906007020160009150915050806000015490806001018054600181600116156101000203166002900480601f0160208091040260200160405190810160405280929190818152602001828054600181600116156101000203166002900480156109995780601f1061096e57610100808354040283529160200191610999565b820191906000526020600020905b81548152906001019060200180831161097c57829003601f168201915b505050505090806002018054600181600116156101000203166002900480601f016020809104026020016040519081016040528092919081815260200182805460018160011615610100020316600290048015610a375780601f10610a0c57610100808354040283529160200191610a37565b820191906000526020600020905b815481529060010190602001808311610a1a57829003601f168201915b505050505090806003018054600181600116156101000203166002900480601f016020809104026020016040519081016040528092919081815260200182805460018160011615610100020316600290048015610ad55780601f10610aaa57610100808354040283529160200191610ad5565b820191906000526020600020905b815481529060010190602001808311610ab857829003601f168201915b505050505090806004018054600181600116156101000203166002900480601f016020809104026020016040519081016040528092919081815260200182805460018160011615610100020316600290048015610b735780601f10610b4857610100808354040283529160200191610b73565b820191906000526020600020905b815481529060010190602001808311610b5657829003601f168201915b505050505090806005018054600181600116156101000203166002900480601f016020809104026020016040519081016040528092919081815260200182805460018160011615610100020316600290048015610c115780601f10610be657610100808354040283529160200191610c11565b820191906000526020600020905b815481529060010190602001808311610bf457829003601f168201915b505050505090806006018054600181600116156101000203166002900480601f016020809104026020016040519081016040528092919081815260200182805460018160011615610100020316600290048015610caf5780601f10610c8457610100808354040283529160200191610caf565b820191906000526020600020905b815481529060010190602001808311610c9257829003601f168201915b5050505050905087565b60016020528060005260406000206000915090508054600181600116156101000203166002900480601f016020809104026020016040519081016040528092919081815260200182805460018160011615610100020316600290048015610d615780601f10610d3657610100808354040283529160200191610d61565b820191906000526020600020905b815481529060010190602001808311610d4457829003601f168201915b505050505081565b6060600160008373ffffffffffffffffffffffffffffffffffffffff1673ffffffffffffffffffffffffffffffffffffffff1681526020019081526020016000208054600181600116156101000203166002900480601f016020809104026020016040519081016040528092919081815260200182805460018160011615610100020316600290048015610e3e5780601f10610e1357610100808354040283529160200191610e3e565b820191906000526020600020905b815481529060010190602001808311610e2157829003601f168201915b50505050509050919050565b8673ffffffffffffffffffffffffffffffffffffffff163373ffffffffffffffffffffffffffffffffffffffff1614151515610e8557600080fd5b60008060008973ffffffffffffffffffffffffffffffffffffffff1673ffffffffffffffffffffffffffffffffffffffff1681526020019081526020016000208054905090506000808973ffffffffffffffffffffffffffffffffffffffff1673ffffffffffffffffffffffffffffffffffffffff16815260200190815260200160002060e0604051908101604052808381526020018681526020018581526020018981526020018881526020018481526020018781525090806001815401808255809150509060018203906000526020600020906007020160009091929091909150600082015181600001556020820151816001019080519060200190610f8e9291906114df565b506040820151816002019080519060200190610fab9291906114df565b506060820151816003019080519060200190610fc89291906114df565b506080820151816004019080519060200190610fe59291906114df565b5060a08201518160050190805190602001906110029291906114df565b5060c082015181600601908051906020019061101f9291906114df565b505050505050505050505050565b60606000808373ffffffffffffffffffffffffffffffffffffffff1673ffffffffffffffffffffffffffffffffffffffff168152602001908152602001600020805480602002602001604051908101604052809291908181526020016000905b82821015611496578382906000526020600020906007020160e0604051908101604052908160008201548152602001600182018054600181600116156101000203166002900480601f0160208091040260200160405190810160405280929190818152602001828054600181600116156101000203166002900480156111545780601f1061112957610100808354040283529160200191611154565b820191906000526020600020905b81548152906001019060200180831161113757829003601f168201915b50505050508152602001600282018054600181600116156101000203166002900480601f0160208091040260200160405190810160405280929190818152602001828054600181600116156101000203166002900480156111f65780601f106111cb576101008083540402835291602001916111f6565b820191906000526020600020905b8154815290600101906020018083116111d957829003601f168201915b50505050508152602001600382018054600181600116156101000203166002900480601f0160208091040260200160405190810160405280929190818152602001828054600181600116156101000203166002900480156112985780601f1061126d57610100808354040283529160200191611298565b820191906000526020600020905b81548152906001019060200180831161127b57829003601f168201915b50505050508152602001600482018054600181600116156101000203166002900480601f01602080910402602001604051908101604052809291908181526020018280546001816001161561010002031660029004801561133a5780601f1061130f5761010080835404028352916020019161133a565b820191906000526020600020905b81548152906001019060200180831161131d57829003601f168201915b50505050508152602001600582018054600181600116156101000203166002900480601f0160208091040260200160405190810160405280929190818152602001828054600181600116156101000203166002900480156113dc5780601f106113b1576101008083540402835291602001916113dc565b820191906000526020600020905b8154815290600101906020018083116113bf57829003601f168201915b50505050508152602001600682018054600181600116156101000203166002900480601f01602080910402602001604051908101604052809291908181526020018280546001816001161561010002031660029004801561147e5780601f106114535761010080835404028352916020019161147e565b820191906000526020600020905b81548152906001019060200180831161146157829003601f168201915b5050505050815250508152602001906001019061108d565b505050509050919050565b60e060405190810160405280600081526020016060815260200160608152602001606081526020016060815260200160608152602001606081525090565b828054600181600116156101000203166002900490600052602060002090601f016020900481019282601f1061152057805160ff191683800117855561154e565b8280016001018555821561154e579182015b8281111561154d578251825591602001919060010190611532565b5b50905061155b91906115df565b5090565b828054600181600116156101000203166002900490600052602060002090601f016020900481019282601f106115a057805160ff19168380011785556115ce565b828001600101855582156115ce579182015b828111156115cd5782518255916020019190600101906115b2565b5b5090506115db91906115df565b5090565b61160191905b808211156115fd5760008160009055506001016115e5565b5090565b90565b60006116108235611c0a565b905092915050565b600082601f830112151561162b57600080fd5b813561163e61163982611b79565b611b4c565b9150808252602083016020830185838301111561165a57600080fd5b611665838284611c26565b50505092915050565b600061167a8235611c1c565b905092915050565b60006020828403121561169457600080fd5b60006116a284828501611604565b91505092915050565b600080604083850312156116be57600080fd5b60006116cc85828601611604565b925050602083013567ffffffffffffffff8111156116e957600080fd5b6116f585828601611618565b9150509250929050565b600080600080600080600060e0888a03121561171a57600080fd5b60006117288a828b01611604565b975050602088013567ffffffffffffffff81111561174557600080fd5b6117518a828b01611618565b965050604088013567ffffffffffffffff81111561176e57600080fd5b61177a8a828b01611618565b955050606088013567ffffffffffffffff81111561179757600080fd5b6117a38a828b01611618565b945050608088013567ffffffffffffffff8111156117c057600080fd5b6117cc8a828b01611618565b93505060a088013567ffffffffffffffff8111156117e957600080fd5b6117f58a828b01611618565b92505060c088013567ffffffffffffffff81111561181257600080fd5b61181e8a828b01611618565b91505092959891949750929550565b6000806040838503121561184057600080fd5b600061184e85828601611604565b925050602061185f8582860161166e565b9150509250929050565b6000806040838503121561187c57600080fd5b600061188a8582860161166e565b925050602061189b85828601611604565b9150509250929050565b60006118b082611bb2565b808452602084019350836020820285016118c985611ba5565b60005b848110156119025783830388526118e483835161197f565b92506118ef82611bd3565b91506020880197506001810190506118cc565b508196508694505050505092915050565b600061191e82611bc8565b808452611932816020860160208601611c35565b61193b81611c68565b602085010191505092915050565b600061195482611bbd565b808452611968816020860160208601611c35565b61197181611c68565b602085010191505092915050565b600060e0830160008301516119976000860182611a3e565b50602083015184820360208601526119af8282611949565b915050604083015184820360408601526119c98282611949565b915050606083015184820360608601526119e38282611949565b915050608083015184820360808601526119fd8282611949565b91505060a083015184820360a0860152611a178282611949565b91505060c083015184820360c0860152611a318282611949565b9150508091505092915050565b611a4781611c00565b82525050565b60006020820190508181036000830152611a6781846118a5565b905092915050565b60006020820190508181036000830152611a898184611949565b905092915050565b60006020820190508181036000830152611aab8184611913565b905092915050565b600060e082019050611ac8600083018a611a3e565b8181036020830152611ada8189611949565b90508181036040830152611aee8188611949565b90508181036060830152611b028187611949565b90508181036080830152611b168186611949565b905081810360a0830152611b2a8185611949565b905081810360c0830152611b3e8184611949565b905098975050505050505050565b6000604051905081810181811067ffffffffffffffff82111715611b6f57600080fd5b8060405250919050565b600067ffffffffffffffff821115611b9057600080fd5b601f19601f8301169050602081019050919050565b6000602082019050919050565b600081519050919050565b600081519050919050565b600081519050919050565b6000602082019050919050565b600073ffffffffffffffffffffffffffffffffffffffff82169050919050565b6000819050919050565b6000611c1582611be0565b9050919050565b6000819050919050565b82818337600083830152505050565b60005b83811015611c53578082015181840152602081019050611c38565b83811115611c62576000848401525b50505050565b6000601f19601f830116905091905056fea265627a7a72305820f5d167d9f70112cd2d92dc140982ffc1a503ecb8f75237436b0c3cb1df5d34d76c6578706572696d656e74616cf50037",
  "source": "pragma solidity ^0.5.0;\npragma experimental ABIEncoderV2;\n\ncontract SimpleStorage {\n  struct Records {\n  \tuint recordCount;\n  \tstring _firstName;\n  \tstring _lastName;\n  \tstring doctor;\n  \tstring treatmentSite;\n  \tstring date;\n  \tstring ipfsHash;\n  }\n\n  mapping(address => Records[]) public users;\n  mapping(address => string) public status;\n\n  function set(address _address, string memory _doctor, string memory _site, string memory x, string memory _firstName, string memory _lastName, string memory _date) public{\n  \trequire(msg.sender != _address);\n    uint index = users[_address].length;\n  \tusers[_address].push(Records(index, _firstName, _lastName, _doctor, _site, _date, x));\n  }\n\n  function setUser(address _address, string memory _status) public{\n    require(msg.sender == _address);\n    status[_address] = _status;\n    //return users[_address].length;\n  }\n  function getUser(address _address) public view returns (string memory){\n      return status[_address];\n  }\n\n  function getRecords(address _address) public view returns (Records[] memory){\n      return users[_address];\n  }\n\n  function setPermission(uint i, address toAddress) public{\n  \t//users[toAddress].push(users[msg.sender][i]);\n    require(msg.sender != toAddress);\n    uint index = users[toAddress].length;\n    Records memory parsedRecord = users[msg.sender][i];\n    users[toAddress].push(Records(index, parsedRecord._firstName, parsedRecord._lastName, parsedRecord.doctor, parsedRecord.treatmentSite, parsedRecord.date, parsedRecord.ipfsHash));\n  }\n\n}",
  "sourcePath": "/Users/oluwafisayooke/Desktop/Medical-Records---Ethereum/Medical/contracts/SimpleStorage.sol",
  "compiler": {
    "name": "solc",
    "version": "0.5.0+commit.1d4f565a.Emscripten.clang"
  },
  "schemaVersion": "3.0.6",
  "updatedAt": "2019-05-02T14:21:18.078Z",
  "devdoc": {
    "methods": {}
  },
  "userdoc": {
    "methods": {}
  }
}