{
  "contractName": "SimpleStorage",
  "abi": [
    {
      "constant": true,
      "inputs": [
        {
          "name": "",
          "type": "address"
        },
        {
          "name": "",
          "type": "uint256"
        }
      ],
      "name": "people",
      "outputs": [
        {
          "name": "recordCount",
          "type": "uint256"
        },
        {
          "name": "_firstName",
          "type": "string"
        },
        {
          "name": "_lastName",
          "type": "string"
        },
        {
          "name": "doctor",
          "type": "string"
        },
        {
          "name": "treatmentSite",
          "type": "string"
        },
        {
          "name": "date",
          "type": "string"
        },
        {
          "name": "ipfsHash",
          "type": "string"
        }
      ],
      "payable": false,
      "stateMutability": "view",
      "type": "function",
      "signature": "0x4ed3885e"
    },
    {
      "constant": false,
      "inputs": [
        {
          "name": "_address",
          "type": "address"
        },
        {
          "name": "_doctor",
          "type": "string"
        },
        {
          "name": "_site",
          "type": "string"
        },
        {
          "name": "x",
          "type": "string"
        },
        {
          "name": "_firstName",
          "type": "string"
        },
        {
          "name": "_lastName",
          "type": "string"
        },
        {
          "name": "_date",
          "type": "string"
        }
      ],
      "name": "set",
      "outputs": [
        {
          "name": "",
          "type": "string"
        }
      ],
      "payable": false,
      "stateMutability": "nonpayable",
      "type": "function",
      "signature": "0x6d4ce63c"
    },
    {
      "constant": false,
      "inputs": [
        {
          "name": "i",
          "type": "uint256"
        },
        {
          "name": "toAddress",
          "type": "address"
        },
        {
          "name": "toAddress",
          "type": "address"
        }
      ],
      "name": "setPermission",
      "outputs": [],
      "payable": false,
      "stateMutability": "nonpayable",
      "type": "function"
    }
  ],
  "bytecode": "0x608060405234801561001057600080fd5b5061103e806100206000396000f3fe608060405260043610610057576000357c0100000000000000000000000000000000000000000000000000000000900463ffffffff16806302731b831461005c5780632f980a4a1461035357806389ea280f146103ae575b600080fd5b34801561006857600080fd5b506100b56004803603604081101561007f57600080fd5b81019080803573ffffffffffffffffffffffffffffffffffffffff16906020019092919080359060200190929190505050610789565b6040518088815260200180602001806020018060200180602001806020018060200187810387528d818151815260200191508051906020019080838360005b8381101561010f5780820151818401526020810190506100f4565b50505050905090810190601f16801561013c5780820380516001836020036101000a031916815260200191505b5087810386528c818151815260200191508051906020019080838360005b8381101561017557808201518184015260208101905061015a565b50505050905090810190601f1680156101a25780820380516001836020036101000a031916815260200191505b5087810385528b818151815260200191508051906020019080838360005b838110156101db5780820151818401526020810190506101c0565b50505050905090810190601f1680156102085780820380516001836020036101000a031916815260200191505b5087810384528a818151815260200191508051906020019080838360005b83811015610241578082015181840152602081019050610226565b50505050905090810190601f16801561026e5780820380516001836020036101000a031916815260200191505b50878103835289818151815260200191508051906020019080838360005b838110156102a757808201518184015260208101905061028c565b50505050905090810190601f1680156102d45780820380516001836020036101000a031916815260200191505b50878103825288818151815260200191508051906020019080838360005b8381101561030d5780820151818401526020810190506102f2565b50505050905090810190601f16801561033a5780820380516001836020036101000a031916815260200191505b509d505050505050505050505050505060405180910390f35b34801561035f57600080fd5b506103ac6004803603604081101561037657600080fd5b8101908080359060200190929190803573ffffffffffffffffffffffffffffffffffffffff169060200190929190505050610b77565b005b3480156103ba57600080fd5b50610787600480360360e08110156103d157600080fd5b81019080803573ffffffffffffffffffffffffffffffffffffffff1690602001909291908035906020019064010000000081111561040e57600080fd5b82018360208201111561042057600080fd5b8035906020019184600183028401116401000000008311171561044257600080fd5b91908080601f016020809104026020016040519081016040528093929190818152602001838380828437600081840152601f19601f820116905080830192505050505050509192919290803590602001906401000000008111156104a557600080fd5b8201836020820111156104b757600080fd5b803590602001918460018302840111640100000000831117156104d957600080fd5b91908080601f016020809104026020016040519081016040528093929190818152602001838380828437600081840152601f19601f8201169050808301925050505050505091929192908035906020019064010000000081111561053c57600080fd5b82018360208201111561054e57600080fd5b8035906020019184600183028401116401000000008311171561057057600080fd5b91908080601f016020809104026020016040519081016040528093929190818152602001838380828437600081840152601f19601f820116905080830192505050505050509192919290803590602001906401000000008111156105d357600080fd5b8201836020820111156105e557600080fd5b8035906020019184600183028401116401000000008311171561060757600080fd5b91908080601f016020809104026020016040519081016040528093929190818152602001838380828437600081840152601f19601f8201169050808301925050505050505091929192908035906020019064010000000081111561066a57600080fd5b82018360208201111561067c57600080fd5b8035906020019184600183028401116401000000008311171561069e57600080fd5b91908080601f016020809104026020016040519081016040528093929190818152602001838380828437600081840152601f19601f8201169050808301925050505050505091929192908035906020019064010000000081111561070157600080fd5b82018360208201111561071357600080fd5b8035906020019184600183028401116401000000008311171561073557600080fd5b91908080601f016020809104026020016040519081016040528093929190818152602001838380828437600081840152601f19601f820116905080830192505050505050509192919290505050610d3c565b005b6004602052816000526040600020818154811015156107a457fe5b906000526020600020906007020160009150915050806000015490806001018054600181600116156101000203166002900480601f0160208091040260200160405190810160405280929190818152602001828054600181600116156101000203166002900480156108575780601f1061082c57610100808354040283529160200191610857565b820191906000526020600020905b81548152906001019060200180831161083a57829003601f168201915b505050505090806002018054600181600116156101000203166002900480601f0160208091040260200160405190810160405280929190818152602001828054600181600116156101000203166002900480156108f55780601f106108ca576101008083540402835291602001916108f5565b820191906000526020600020905b8154815290600101906020018083116108d857829003601f168201915b505050505090806003018054600181600116156101000203166002900480601f0160208091040260200160405190810160405280929190818152602001828054600181600116156101000203166002900480156109935780601f1061096857610100808354040283529160200191610993565b820191906000526020600020905b81548152906001019060200180831161097657829003601f168201915b505050505090806004018054600181600116156101000203166002900480601f016020809104026020016040519081016040528092919081815260200182805460018160011615610100020316600290048015610a315780601f10610a0657610100808354040283529160200191610a31565b820191906000526020600020905b815481529060010190602001808311610a1457829003601f168201915b505050505090806005018054600181600116156101000203166002900480601f016020809104026020016040519081016040528092919081815260200182805460018160011615610100020316600290048015610acf5780601f10610aa457610100808354040283529160200191610acf565b820191906000526020600020905b815481529060010190602001808311610ab257829003601f168201915b505050505090806006018054600181600116156101000203166002900480601f016020809104026020016040519081016040528092919081815260200182805460018160011615610100020316600290048015610b6d5780601f10610b4257610100808354040283529160200191610b6d565b820191906000526020600020905b815481529060010190602001808311610b5057829003601f168201915b5050505050905087565b600460008273ffffffffffffffffffffffffffffffffffffffff1673ffffffffffffffffffffffffffffffffffffffff168152602001908152602001600020600460003373ffffffffffffffffffffffffffffffffffffffff1673ffffffffffffffffffffffffffffffffffffffff16815260200190815260200160002083815481101515610c0257fe5b9060005260206000209060070201908060018154018082558091505090600182039060005260206000209060070201600090919290919091506000820154816000015560018201816001019080546001816001161561010002031660029004610c6c929190610ee6565b5060028201816002019080546001816001161561010002031660029004610c94929190610ee6565b5060038201816003019080546001816001161561010002031660029004610cbc929190610ee6565b5060048201816004019080546001816001161561010002031660029004610ce4929190610ee6565b5060058201816005019080546001816001161561010002031660029004610d0c929190610ee6565b5060068201816006019080546001816001161561010002031660029004610d34929190610ee6565b505050505050565b6000600460008973ffffffffffffffffffffffffffffffffffffffff1673ffffffffffffffffffffffffffffffffffffffff168152602001908152602001600020805490509050600460008973ffffffffffffffffffffffffffffffffffffffff1673ffffffffffffffffffffffffffffffffffffffff16815260200190815260200160002060e0604051908101604052808381526020018681526020018581526020018981526020018881526020018481526020018781525090806001815401808255809150509060018203906000526020600020906007020160009091929091909150600082015181600001556020820151816001019080519060200190610e47929190610f6d565b506040820151816002019080519060200190610e64929190610f6d565b506060820151816003019080519060200190610e81929190610f6d565b506080820151816004019080519060200190610e9e929190610f6d565b5060a0820151816005019080519060200190610ebb929190610f6d565b5060c0820151816006019080519060200190610ed8929190610f6d565b505050505050505050505050565b828054600181600116156101000203166002900490600052602060002090601f016020900481019282601f10610f1f5780548555610f5c565b82800160010185558215610f5c57600052602060002091601f016020900482015b82811115610f5b578254825591600101919060010190610f40565b5b509050610f699190610fed565b5090565b828054600181600116156101000203166002900490600052602060002090601f016020900481019282601f10610fae57805160ff1916838001178555610fdc565b82800160010185558215610fdc579182015b82811115610fdb578251825591602001919060010190610fc0565b5b509050610fe99190610fed565b5090565b61100f91905b8082111561100b576000816000905550600101610ff3565b5090565b9056fea165627a7a7230582034de7edd20a8aa657763e5123e2160d7d1beeb686dabc851e0345e55c717713e0029",
  "source": "pragma solidity ^0.5.0;\n\ncontract SimpleStorage {\n  string ipfsHash;\n  string firstName;\n  string lastName;\n  string date;\n\n \n  struct Records {\n  \tuint recordCount;\n  \tstring _firstName;\n  \tstring _lastName;\n  \tstring doctor;\n  \tstring treatmentSite;\n  \tstring date;\n  \tstring ipfsHash;\n  }\n\n  mapping(address => Records[]) public people;\n\n  function set(address _address, string memory _doctor, string memory _site, string memory x, string memory _firstName, string memory _lastName, string memory _date) public{\n  \tuint index = people[_address].length;\n  \tpeople[_address].push(Records(index, _firstName, _lastName, _doctor, _site, _date, x));\n  }\n\n  function setPermission(uint i, address toAddress) public{\n  \tpeople[toAddress].push(people[msg.sender][i]);\n  }\n\n}\n\n\n\n// web3.eth.getCoinbase(function(err, account) {\n//       if (err === null) {\n//         App.account = account;\n//         $(\"#accountAddress\").html(\"Your Account: \" + account);\n//       }\n// })\n//address fromAddress, ",
  "sourcePath": "/Users/oluwafisayooke/Desktop/Medical-Records---Ethereum/Medical/contracts/SimpleStorage.sol",
  "compiler": {
    "name": "solc",
    "version": "0.5.0+commit.1d4f565a.Emscripten.clang"
  },
  "schemaVersion": "3.0.6",
  "updatedAt": "2019-04-22T16:25:45.221Z",
  "devdoc": {
    "methods": {}
  },
  "userdoc": {
    "methods": {}
  }
}