{
  "contractName": "SimpleStorage",
  "abi": [
    {
      "constant": true,
      "inputs": [
        {
          "name": "",
          "type": "address"
        },
        {
          "name": "",
          "type": "uint256"
        }
      ],
      "name": "users",
      "outputs": [
        {
          "name": "recordCount",
          "type": "uint256"
        },
        {
          "name": "_firstName",
          "type": "string"
        },
        {
          "name": "_lastName",
          "type": "string"
        },
        {
          "name": "doctor",
          "type": "string"
        },
        {
          "name": "treatmentSite",
          "type": "string"
        },
        {
          "name": "date",
          "type": "string"
        },
        {
          "name": "ipfsHash",
          "type": "string"
        }
      ],
      "payable": false,
      "stateMutability": "view",
      "type": "function",
      "signature": "0x54a02f9e"
    },
    {
      "constant": false,
      "inputs": [
        {
          "name": "_address",
          "type": "address"
        },
        {
          "name": "_doctor",
          "type": "string"
        },
        {
          "name": "_site",
          "type": "string"
        },
        {
          "name": "x",
          "type": "string"
        },
        {
          "name": "_firstName",
          "type": "string"
        },
        {
          "name": "_lastName",
          "type": "string"
        },
        {
          "name": "_date",
          "type": "string"
        }
      ],
      "name": "set",
      "outputs": [],
      "payable": false,
      "stateMutability": "nonpayable",
      "type": "function",
      "signature": "0x89ea280f"
    },
    {
      "constant": true,
      "inputs": [
        {
          "name": "_address",
          "type": "address"
        },
        {
          "name": "toAddress",
          "type": "address"
        }
      ],
      "name": "getLength",
      "outputs": [
        {
          "name": "",
          "type": "uint256"
        }
      ],
      "payable": false,
      "stateMutability": "view",
      "type": "function",
      "signature": "0x84800a9e"
    },
    {
      "constant": true,
      "inputs": [
        {
          "name": "_address",
          "type": "address"
        },
        {
          "name": "index",
          "type": "uint256"
        }
      ],
      "name": "getRecord",
      "outputs": [
        {
          "components": [
            {
              "name": "recordCount",
              "type": "uint256"
            },
            {
              "name": "_firstName",
              "type": "string"
            },
            {
              "name": "_lastName",
              "type": "string"
            },
            {
              "name": "doctor",
              "type": "string"
            },
            {
              "name": "treatmentSite",
              "type": "string"
            },
            {
              "name": "date",
              "type": "string"
            },
            {
              "name": "ipfsHash",
              "type": "string"
            }
          ],
          "name": "",
          "type": "tuple"
        }
      ],
      "payable": false,
      "stateMutability": "view",
      "type": "function",
      "signature": "0xcdb8acf0"
    },
    {
      "constant": false,
      "inputs": [
        {
          "name": "i",
          "type": "uint256"
        },
        {
          "name": "toAddress",
          "type": "address"
        }
      ],
      "name": "setPermission",
      "outputs": [],
      "payable": false,
      "stateMutability": "nonpayable",
      "type": "function",
      "signature": "0x2f980a4a"
    }
  ],
  "bytecode": "0x608060405234801561001057600080fd5b5061186c806100206000396000f3fe60806040526004361061006d576000357c0100000000000000000000000000000000000000000000000000000000900463ffffffff1680632f980a4a1461007257806354a02f9e1461009b57806389ea280f146100de578063cdb8acf014610107578063fe611a0714610144575b600080fd5b34801561007e57600080fd5b506100996004803603610094919081019061151f565b610181565b005b3480156100a757600080fd5b506100c260048036036100bd91908101906114e3565b6107c0565b6040516100d5979695949392919061169c565b60405180910390f35b3480156100ea57600080fd5b50610105600480360361010091908101906113b5565b610bae565b005b34801561011357600080fd5b5061012e600480360361012991908101906114e3565b610d93565b60405161013b919061165f565b60405180910390f35b34801561015057600080fd5b5061016b6004803603610166919081019061138c565b6111df565b6040516101789190611681565b60405180910390f35b8073ffffffffffffffffffffffffffffffffffffffff163373ffffffffffffffffffffffffffffffffffffffff16141515156101bc57600080fd5b6000600460008373ffffffffffffffffffffffffffffffffffffffff1673ffffffffffffffffffffffffffffffffffffffff16815260200190815260200160002080549050905061020b61122b565b600460003373ffffffffffffffffffffffffffffffffffffffff1673ffffffffffffffffffffffffffffffffffffffff1681526020019081526020016000208481548110151561025757fe5b906000526020600020906007020160e0604051908101604052908160008201548152602001600182018054600181600116156101000203166002900480601f0160208091040260200160405190810160405280929190818152602001828054600181600116156101000203166002900480156103145780601f106102e957610100808354040283529160200191610314565b820191906000526020600020905b8154815290600101906020018083116102f757829003601f168201915b50505050508152602001600282018054600181600116156101000203166002900480601f0160208091040260200160405190810160405280929190818152602001828054600181600116156101000203166002900480156103b65780601f1061038b576101008083540402835291602001916103b6565b820191906000526020600020905b81548152906001019060200180831161039957829003601f168201915b50505050508152602001600382018054600181600116156101000203166002900480601f0160208091040260200160405190810160405280929190818152602001828054600181600116156101000203166002900480156104585780601f1061042d57610100808354040283529160200191610458565b820191906000526020600020905b81548152906001019060200180831161043b57829003601f168201915b50505050508152602001600482018054600181600116156101000203166002900480601f0160208091040260200160405190810160405280929190818152602001828054600181600116156101000203166002900480156104fa5780601f106104cf576101008083540402835291602001916104fa565b820191906000526020600020905b8154815290600101906020018083116104dd57829003601f168201915b50505050508152602001600582018054600181600116156101000203166002900480601f01602080910402602001604051908101604052809291908181526020018280546001816001161561010002031660029004801561059c5780601f106105715761010080835404028352916020019161059c565b820191906000526020600020905b81548152906001019060200180831161057f57829003601f168201915b50505050508152602001600682018054600181600116156101000203166002900480601f01602080910402602001604051908101604052809291908181526020018280546001816001161561010002031660029004801561063e5780601f106106135761010080835404028352916020019161063e565b820191906000526020600020905b81548152906001019060200180831161062157829003601f168201915b5050505050815250509050600460008473ffffffffffffffffffffffffffffffffffffffff1673ffffffffffffffffffffffffffffffffffffffff16815260200190815260200160002060e060405190810160405280848152602001836020015181526020018360400151815260200183606001518152602001836080015181526020018360a0015181526020018360c0015181525090806001815401808255809150509060018203906000526020600020906007020160009091929091909150600082015181600001556020820151816001019080519060200190610725929190611269565b506040820151816002019080519060200190610742929190611269565b50606082015181600301908051906020019061075f929190611269565b50608082015181600401908051906020019061077c929190611269565b5060a0820151816005019080519060200190610799929190611269565b5060c08201518160060190805190602001906107b6929190611269565b5050505050505050565b6004602052816000526040600020818154811015156107db57fe5b906000526020600020906007020160009150915050806000015490806001018054600181600116156101000203166002900480601f01602080910402602001604051908101604052809291908181526020018280546001816001161561010002031660029004801561088e5780601f106108635761010080835404028352916020019161088e565b820191906000526020600020905b81548152906001019060200180831161087157829003601f168201915b505050505090806002018054600181600116156101000203166002900480601f01602080910402602001604051908101604052809291908181526020018280546001816001161561010002031660029004801561092c5780601f106109015761010080835404028352916020019161092c565b820191906000526020600020905b81548152906001019060200180831161090f57829003601f168201915b505050505090806003018054600181600116156101000203166002900480601f0160208091040260200160405190810160405280929190818152602001828054600181600116156101000203166002900480156109ca5780601f1061099f576101008083540402835291602001916109ca565b820191906000526020600020905b8154815290600101906020018083116109ad57829003601f168201915b505050505090806004018054600181600116156101000203166002900480601f016020809104026020016040519081016040528092919081815260200182805460018160011615610100020316600290048015610a685780601f10610a3d57610100808354040283529160200191610a68565b820191906000526020600020905b815481529060010190602001808311610a4b57829003601f168201915b505050505090806005018054600181600116156101000203166002900480601f016020809104026020016040519081016040528092919081815260200182805460018160011615610100020316600290048015610b065780601f10610adb57610100808354040283529160200191610b06565b820191906000526020600020905b815481529060010190602001808311610ae957829003601f168201915b505050505090806006018054600181600116156101000203166002900480601f016020809104026020016040519081016040528092919081815260200182805460018160011615610100020316600290048015610ba45780601f10610b7957610100808354040283529160200191610ba4565b820191906000526020600020905b815481529060010190602001808311610b8757829003601f168201915b5050505050905087565b8673ffffffffffffffffffffffffffffffffffffffff163373ffffffffffffffffffffffffffffffffffffffff1614151515610be957600080fd5b6000600460008973ffffffffffffffffffffffffffffffffffffffff1673ffffffffffffffffffffffffffffffffffffffff168152602001908152602001600020805490509050600460008973ffffffffffffffffffffffffffffffffffffffff1673ffffffffffffffffffffffffffffffffffffffff16815260200190815260200160002060e0604051908101604052808381526020018681526020018581526020018981526020018881526020018481526020018781525090806001815401808255809150509060018203906000526020600020906007020160009091929091909150600082015181600001556020820151816001019080519060200190610cf4929190611269565b506040820151816002019080519060200190610d11929190611269565b506060820151816003019080519060200190610d2e929190611269565b506080820151816004019080519060200190610d4b929190611269565b5060a0820151816005019080519060200190610d68929190611269565b5060c0820151816006019080519060200190610d85929190611269565b505050505050505050505050565b610d9b61122b565b600460008473ffffffffffffffffffffffffffffffffffffffff1673ffffffffffffffffffffffffffffffffffffffff16815260200190815260200160002082815481101515610de757fe5b906000526020600020906007020160e0604051908101604052908160008201548152602001600182018054600181600116156101000203166002900480601f016020809104026020016040519081016040528092919081815260200182805460018160011615610100020316600290048015610ea45780601f10610e7957610100808354040283529160200191610ea4565b820191906000526020600020905b815481529060010190602001808311610e8757829003601f168201915b50505050508152602001600282018054600181600116156101000203166002900480601f016020809104026020016040519081016040528092919081815260200182805460018160011615610100020316600290048015610f465780601f10610f1b57610100808354040283529160200191610f46565b820191906000526020600020905b815481529060010190602001808311610f2957829003601f168201915b50505050508152602001600382018054600181600116156101000203166002900480601f016020809104026020016040519081016040528092919081815260200182805460018160011615610100020316600290048015610fe85780601f10610fbd57610100808354040283529160200191610fe8565b820191906000526020600020905b815481529060010190602001808311610fcb57829003601f168201915b50505050508152602001600482018054600181600116156101000203166002900480601f01602080910402602001604051908101604052809291908181526020018280546001816001161561010002031660029004801561108a5780601f1061105f5761010080835404028352916020019161108a565b820191906000526020600020905b81548152906001019060200180831161106d57829003601f168201915b50505050508152602001600582018054600181600116156101000203166002900480601f01602080910402602001604051908101604052809291908181526020018280546001816001161561010002031660029004801561112c5780601f106111015761010080835404028352916020019161112c565b820191906000526020600020905b81548152906001019060200180831161110f57829003601f168201915b50505050508152602001600682018054600181600116156101000203166002900480601f0160208091040260200160405190810160405280929190818152602001828054600181600116156101000203166002900480156111ce5780601f106111a3576101008083540402835291602001916111ce565b820191906000526020600020905b8154815290600101906020018083116111b157829003601f168201915b505050505081525050905092915050565b6000600460008373ffffffffffffffffffffffffffffffffffffffff1673ffffffffffffffffffffffffffffffffffffffff168152602001908152602001600020805490509050919050565b60e060405190810160405280600081526020016060815260200160608152602001606081526020016060815260200160608152602001606081525090565b828054600181600116156101000203166002900490600052602060002090601f016020900481019282601f106112aa57805160ff19168380011785556112d8565b828001600101855582156112d8579182015b828111156112d75782518255916020019190600101906112bc565b5b5090506112e591906112e9565b5090565b61130b91905b808211156113075760008160009055506001016112ef565b5090565b90565b600061131a82356117c3565b905092915050565b600082601f830112151561133557600080fd5b813561134861134382611762565b611735565b9150808252602083016020830185838301111561136457600080fd5b61136f8382846117df565b50505092915050565b600061138482356117d5565b905092915050565b60006020828403121561139e57600080fd5b60006113ac8482850161130e565b91505092915050565b600080600080600080600060e0888a0312156113d057600080fd5b60006113de8a828b0161130e565b975050602088013567ffffffffffffffff8111156113fb57600080fd5b6114078a828b01611322565b965050604088013567ffffffffffffffff81111561142457600080fd5b6114308a828b01611322565b955050606088013567ffffffffffffffff81111561144d57600080fd5b6114598a828b01611322565b945050608088013567ffffffffffffffff81111561147657600080fd5b6114828a828b01611322565b93505060a088013567ffffffffffffffff81111561149f57600080fd5b6114ab8a828b01611322565b92505060c088013567ffffffffffffffff8111156114c857600080fd5b6114d48a828b01611322565b91505092959891949750929550565b600080604083850312156114f657600080fd5b60006115048582860161130e565b925050602061151585828601611378565b9150509250929050565b6000806040838503121561153257600080fd5b600061154085828601611378565b92505060206115518582860161130e565b9150509250929050565b60006115668261178e565b80845261157a8160208601602086016117ee565b61158381611821565b602085010191505092915050565b600060e0830160008301516115a96000860182611650565b50602083015184820360208601526115c1828261155b565b915050604083015184820360408601526115db828261155b565b915050606083015184820360608601526115f5828261155b565b9150506080830151848203608086015261160f828261155b565b91505060a083015184820360a0860152611629828261155b565b91505060c083015184820360c0860152611643828261155b565b9150508091505092915050565b611659816117b9565b82525050565b600060208201905081810360008301526116798184611591565b905092915050565b60006020820190506116966000830184611650565b92915050565b600060e0820190506116b1600083018a611650565b81810360208301526116c3818961155b565b905081810360408301526116d7818861155b565b905081810360608301526116eb818761155b565b905081810360808301526116ff818661155b565b905081810360a0830152611713818561155b565b905081810360c0830152611727818461155b565b905098975050505050505050565b6000604051905081810181811067ffffffffffffffff8211171561175857600080fd5b8060405250919050565b600067ffffffffffffffff82111561177957600080fd5b601f19601f8301169050602081019050919050565b600081519050919050565b600073ffffffffffffffffffffffffffffffffffffffff82169050919050565b6000819050919050565b60006117ce82611799565b9050919050565b6000819050919050565b82818337600083830152505050565b60005b8381101561180c5780820151818401526020810190506117f1565b8381111561181b576000848401525b50505050565b6000601f19601f830116905091905056fea265627a7a72305820dcebfc680c5b2b0ab04adfad612ff596362465e2937b59d109a179728ac50ec76c6578706572696d656e74616cf50037",
  "source": "pragma solidity ^0.5.0;\npragma experimental ABIEncoderV2;\n\ncontract SimpleStorage {\n  string ipfsHash;\n  string firstName;\n  string lastName;\n  string date;\n\n \n  struct Records {\n  \tuint recordCount;\n  \tstring _firstName;\n  \tstring _lastName;\n  \tstring doctor;\n  \tstring treatmentSite;\n  \tstring date;\n  \tstring ipfsHash;\n  }\n\n  mapping(address => Records[]) public users;\n\n  function set(address _address, string memory _doctor, string memory _site, string memory x, string memory _firstName, string memory _lastName, string memory _date) public{\n  \trequire(msg.sender != _address);\n    uint index = users[_address].length;\n  \tusers[_address].push(Records(index, _firstName, _lastName, _doctor, _site, _date, x));\n  }\n\n  function getLength(address _address) public view returns (uint){\n      return users[_address].length;\n  }\n\n  function getRecord(address _address, uint index) public view returns (Records memory){\n      return users[_address][index];\n  }\n\n  function setPermission(uint i, address toAddress) public{\n  \t//users[toAddress].push(users[msg.sender][i]);\n    require(msg.sender != toAddress);\n    uint index = users[toAddress].length;\n    Records memory parsedRecord = users[msg.sender][i];\n    users[toAddress].push(Records(index, parsedRecord._firstName, parsedRecord._lastName, parsedRecord.doctor, parsedRecord.treatmentSite, parsedRecord.date, parsedRecord.ipfsHash));\n  }\n\n}",
  "sourcePath": "/Users/oluwafisayooke/Desktop/Medical/contracts/SimpleStorage.sol",
  "compiler": {
    "name": "solc",
    "version": "0.5.0+commit.1d4f565a.Emscripten.clang"
  },
  "schemaVersion": "3.0.6",
  "updatedAt": "2019-04-23T17:56:45.790Z",
  "devdoc": {
    "methods": {}
  },
  "userdoc": {
    "methods": {}
  }
}